{
  "contractName": "ProofOfLife",
  "abi": [
    {
      "anonymous": false,
      "inputs": [
        {
          "indexed": true,
          "internalType": "address",
          "name": "user",
          "type": "address"
        },
        {
          "indexed": false,
          "internalType": "bytes32",
          "name": "challengeHash",
          "type": "bytes32"
        },
        {
          "indexed": false,
          "internalType": "uint256",
          "name": "timestamp",
          "type": "uint256"
        },
        {
          "indexed": false,
          "internalType": "uint256",
          "name": "expiresAt",
          "type": "uint256"
        }
      ],
      "name": "ProofMinted",
      "type": "event"
    },
    {
      "inputs": [],
      "name": "VALIDITY_PERIOD",
      "outputs": [
        {
          "internalType": "uint256",
          "name": "",
          "type": "uint256"
        }
      ],
      "stateMutability": "view",
      "type": "function",
      "constant": true
    },
    {
      "inputs": [
        {
          "internalType": "address",
          "name": "",
          "type": "address"
        }
      ],
      "name": "userProofs",
      "outputs": [
        {
          "internalType": "uint256",
          "name": "timestamp",
          "type": "uint256"
        },
        {
          "internalType": "bytes32",
          "name": "challengeHash",
          "type": "bytes32"
        },
        {
          "internalType": "bool",
          "name": "isActive",
          "type": "bool"
        }
      ],
      "stateMutability": "view",
      "type": "function",
      "constant": true
    },
    {
      "inputs": [
        {
          "internalType": "bytes32",
          "name": "_challengeHash",
          "type": "bytes32"
        }
      ],
      "name": "mintProof",
      "outputs": [],
      "stateMutability": "nonpayable",
      "type": "function"
    },
    {
      "inputs": [
        {
          "internalType": "address",
          "name": "_user",
          "type": "address"
        }
      ],
      "name": "verifyProof",
      "outputs": [
        {
          "internalType": "bool",
          "name": "",
          "type": "bool"
        }
      ],
      "stateMutability": "view",
      "type": "function",
      "constant": true
    }
  ],
  "bytecode": "0x608060405234801561000f575f80fd5b506102838061001d5f395ff3fe608060405234801561000f575f80fd5b506004361061004a575f3560e01c80630c43cd881461004e57806322b824ab1461006a578063786fcff4146100b8578063d374abb0146100cd575b5f80fd5b61005761012c81565b6040519081526020015b60405180910390f35b61009b6100783660046101eb565b5f6020819052908152604090208054600182015460029092015490919060ff1683565b604080519384526020840192909252151590820152606001610061565b6100cb6100c6366004610211565b6100f0565b005b6100e06100db3660046101eb565b61018c565b6040519015158152602001610061565b604080516060810182524280825260208083018581526001848601818152335f818152948590529690932094518555905190840155516002909201805460ff1916921515929092179091557fcd8893243ec1938ab730b1ecbe5edf0dbf37b5a8a55646ab7164eedeb70a901890839061016b61012c82610228565b6040805193845260208401929092529082015260600160405180910390a250565b6001600160a01b0381165f908152602081815260408083208151606081018352815481526001820154938101939093526002015460ff161580159183018290526101e4575080516101e09061012c90610228565b4211155b9392505050565b5f602082840312156101fb575f80fd5b81356001600160a01b03811681146101e4575f80fd5b5f60208284031215610221575f80fd5b5035919050565b8082018082111561024757634e487b7160e01b5f52601160045260245ffd5b9291505056fea2646970667358221220d91a859dfd37bf7bb7f5f43417aa4d5604d4f526d3945d11e855df8d5fbb004164736f6c63430008150033",
  "immutableReferences": {},
  "source": "// SPDX-License-Identifier: MIT\r\npragma solidity ^0.8.21;\r\n\r\ncontract ProofOfLife {\r\n\r\n    struct Proof {\r\n        uint256 timestamp;\r\n        bytes32 challengeHash;\r\n        bool isActive;\r\n    }\r\n\r\n    mapping(address => Proof) public userProofs;\r\n\r\n    uint256 public constant VALIDITY_PERIOD = 5 minutes;\r\n\r\n    event ProofMinted(\r\n        address indexed user,\r\n        bytes32 challengeHash,\r\n        uint256 timestamp,\r\n        uint256 expiresAt\r\n    );\r\n\r\n    function mintProof(bytes32 _challengeHash) external {\r\n        userProofs[msg.sender] = Proof(\r\n            block.timestamp,\r\n            _challengeHash,\r\n            true\r\n        );\r\n\r\n        emit ProofMinted(\r\n            msg.sender,\r\n            _challengeHash,\r\n            block.timestamp,\r\n            block.timestamp + VALIDITY_PERIOD\r\n        );\r\n    }\r\n\r\n    function verifyProof(address _user) external view returns (bool) {\r\n        Proof memory proof = userProofs[_user];\r\n        return proof.isActive &&\r\n               block.timestamp <= proof.timestamp + VALIDITY_PERIOD;\r\n    }\r\n}\r\n",
  "sourcePath": "E:\\E\\Project\\prj idea - 6\\vault\\contracts\\contracts\\ProofOfLife.sol",
  "compiler": {
    "name": "solc",
    "version": "0.8.21+commit.d9974bed.Emscripten.clang"
  },
  "schemaVersion": "3.4.16",
  "updatedAt": "2026-02-14T09:01:37.551Z",
  "networkType": "ethereum",
  "devdoc": {
    "kind": "dev",
    "methods": {},
    "version": 1
  },
  "userdoc": {
    "kind": "user",
    "methods": {},
    "version": 1
  }
}